:060000000A128A110C280F
:10000800FE00030EF0000A08F1000A128A119B2C68
:100018000A128A110F280A128A11BA240A128A119E
:10002800B2000A128A11BB240A128A11B3000A12FA
:100038008A11BC240A128A11B4000A128A11BD243A
:100048000A128A11B5000A128A11BE240A128A11EC
:10005800B600AD01AE01AF01B001B101FA01FB017B
:1000680083010A128A11382883160313880105149C
:1000780002308600C0309F008130831203139F0036
:100088000730831603139C008B170B178C148312ED
:10009800031392018C100A128A117A230A128A1108
:1000A80001300A128A116D240A128A110C300A12C0
:1000B8008A116D240A128A11F501F50A0130F60039
:1000C8008030F70001300A128A11C1230A128A11FE
:1000D800F501F50A1130F6008030F70002300A12F7
:1000E8008A11C1230A128A11153083120313A20040
:1000F8004B30A100BD30A000A00B8028A10B8028A8
:10010800A20B802887280A128A11AC240A128A11A5
:10011800730883120313AC007208AB0000302C0282
:10012800973003192B02031C9A289B289D28081036
:100138009E280814831603138C140A128A11522459
:100148000A128A110A128A112A240A128A11003AFA
:100158000319AF28B028162A0A128A11FA230A129C
:100168008A1183120313AE000A128A11FA230A12A3
:100178008A1183120313AD000A128A11FA230A1294
:100188008A1183120313B0000A128A11FA230A1281
:100198008A1183120313AF000A128A11FA230A1272
:1001A8008A1183120313B1002E082D07A000A101A4
:1001B800A10D30082007A2000030031801302107E4
:1001C800A3002F082207A4000030031801302307DA
:1001D800A500FF302405A60000302505A70031083A
:1001E800A800A90127082906031DFC2826082806B7
:1001F800031DFF280029F52901300A128A116D24F0
:100208000A128A11F501F50A4730F6008030F70026
:1002180001300A128A11C1230A128A110A30F20027
:100228000030F300831203132E08A000A101200858
:10023800F4002108F5000A128A11C0220A128A1154
:100248007208303E83120313B2000A30F200003005
:10025800F3002E08A000A1012008F4002108F500F1
:100268000A128A1123230A128A117208303E831255
:100278000313B3000A30F2000030F3002D08A00089
:10028800A1012008F4002108F5000A128A1123238D
:100298000A128A117208303E83120313B5000B301C
:1002A800F5003230F6000030F70001300A128A11EA
:1002B800C1230A128A110F30F5006330F60080302E
:1002C800F70001300A128A11C1230A128A11F501B6
:1002D800F50A5730F6008030F70002300A128A110A
:1002E800C1230A128A110A30F2000030F300831287
:1002F80003133008A000A1012008F4002108F5002C
:100308000A128A11C0220A128A117208303E831218
:100318000313B2000A30F2000030F3003008A000E6
:10032800A1012008F4002108F5000A128A112323EC
:100338000A128A117208303E83120313B3000A307E
:10034800F2000030F3002F08A000A1012008F400FB
:100358002108F5000A128A1123230A128A11720849
:10036800303E83120313B5000730F5003230F60033
:100378000030F70002300A128A11C1230A128A11CA
:10038800DF300A128A1186240A128A110B30F5000E
:100398006530F6008030F70002300A128A11C12356
:1003A8000A128A110030831203132C0297300319A2
:1003B8002B020318E029E129E4295130AA00E62993
:1003C8005D30AA000D30F5002A08F6000030031D44
:1003D8008030F70002300A128A11C1230A128A11EA
:1003E800352A01300A128A116D240A128A11F50180
:1003F800F50A2030F6008030F70001300A128A1121
:10040800C1230A128A11063083120313A200133083
:10041800A100AD30A000A00B0F2AA10B0F2AA20B40
:100428000F2A352A01300A128A116D240A128A11FC
:10043800F501F50A3B30F6008030F70001300A126A
:100448008A11C1230A128A11F501F50A2F30F60024
:100458008030F70002300A128A11C1230A128A1169
:10046800072A831603138C10103083120313A2007B
:100478003930A1000D30A000A00B402AA10B402A62
:10048800A20B402A87280A128A110C28FF1B542A1B
:1004980083137F1883170008840A0319FF0A0800CA
:1004A80002308A000408840A8207003453347934FD
:1004B8007334743465346D34203453347434613493
:1004C8007234743469346E346734003450346C34A4
:1004D8006534613473346534203477346134693475
:1004E80074342E342E342E34003443346834653456
:1004F80063346B34733475346D342034453472345A
:1005080072346F3472340034523465347434723453
:10051800793469346E3467342E342E342E340034F2
:10052800443448345434313431342034453472340A
:1005380072346F3472340034483475346D3469342D
:1005480064346934743479343A340034443461346A
:1005580072346B3420340034543465346D34703460
:100568003A3400344C3469346734683474340034B1
:100578002534003443340034F701F31FC42AC52A54
:10058800CC2AF209F309F20A0319F30A0130F70039
:10059800F51FCF2AD02AD72AF409F509F40A031936
:1005A800F50A0130F706F801F90172087304031916
:1005B800DE2ADF2A142B0130F600EB2A0130031063
:1005C800F20DF30DFF3E031DE32A0130F607F31F7A
:1005D800EE2AEF2AE22A01300310F80DF90DFF3E4A
:1005E800031DF02A73087502031DFC2A72087402A1
:1005F800031CFF2A002B072B7208F4027308031C44
:10060800F503F502781401300310F30CF20CFF3EE9
:10061800031D082B0130F602031D132B142BEF2AA0
:1006280077080319182B192B1E2BF809F909F80A52
:100638000319F90A7908F3007808F2000800F701AD
:10064800F51F272B282B2F2BF409F509F40A03197A
:10065800F50A0130F700F31F322B332B382BF20940
:10066800F309F20A0319F30A7208730403193D2BFC
:100678003E2B6B2B0130F6004A2B01300310F20D94
:10068800F30DFF3E031D422B0130F607F31F4D2BE0
:100698004E2B412B73087502031D542B72087402EC
:1006A800031C572B582B5E2B7208F4027308031C8B
:1006B800F503F50201300310F30CF20CFF3E031DA5
:1006C8005F2B0130F602031D6A2B6B2B4E2B77082C
:1006D80003196F2B702B752BF409F509F40A03190C
:1006E800F50A7508F3007408F2000800831603136E
:1006F80086012730F600F530F500F50B812BF60B57
:10070800812B38300A128A116D240A128A110D3091
:10071800F600FB30F500F50B8F2BF60B8F2B942B87
:1007280038300A128A116D240A128A114230F500F3
:10073800F50B9C2B000038300A128A116D240A121E
:100748008A110C300A128A116D240A128A1101309A
:100758000A128A116D240A128A110630F600303006
:10076800F500F50BB52BF60BB52B000006300A1279
:100778008A116D240A128A110800F8007803031DF3
:10078800C62BC72BCB2B75087F3EF900CE2B7508DF
:10079800BF3EF90079080A128A116D240A128A11DB
:1007A800E92B7708FF00760884000A128A114A228A
:1007B8000A128A110A128A1186240A128A11013031
:1007C800F6070318F70A0030F707770883120313B0
:1007D800FF00760884000A128A114A220A128A1136
:1007E800003A031DF82BF92BD52B0800F3018316CB
:1007F80003138614FA018312861C032C042CFF2B86
:100808001A30F200F20B062C000083120313861C28
:100818000E2C0F2C1C2C0130F2007A08073C013EEC
:10082800172C0310F20DFF3E031D152C7208F3045C
:1008380086181F2C202C1C2C0130FA0708307A024D
:10084800031C272C282CFF2B73080800FB0183129C
:100858000313910112158618322C332C382C7B087F
:100868000319372C382C2F2C7B0803193C2C3D2CD2
:100878003F2C0030512C9101861C432C442C492CD0
:100888007B080319482C492C402C7B0803194D2C54
:100898004E2C4F2C3D2C12110130080083160313E7
:1008A80086108312031386102F30F300BF30F20036
:1008B800F20B5C2CF30B5C2C612C83120313861453
:1008C8001330F200F20B662C692C8316031386147E
:1008D8000800F400740883120313860006118615B5
:1008E8000630F200F20B762C0000831203138611F7
:1008F8000630F3003030F200F20B802CF30B802C22
:1009080000000800F300730883120313860006151D
:1009180086150630F200F20B8F2C000083120313A9
:1009280086114230F200F20B972C00000800831267
:1009380003138C1CA02CA12CA52C0130FB00121138
:100948008C1071088A00700E8300FE0E7E0E09005E
:10095800831203131F151F19B22CB32CAF2C1E08BA
:10096800F300831603131E08F200080030343034F5
:060978002E34303400347F
:02400E007A3FF7
:00000001FF
